{
  "contractName": "EmployeeNew",
  "abi": [
    {
      "inputs": [
        {
          "internalType": "string",
          "name": "_name",
          "type": "string"
        },
        {
          "internalType": "uint256",
          "name": "_id",
          "type": "uint256"
        },
        {
          "internalType": "uint256",
          "name": "_age",
          "type": "uint256"
        }
      ],
      "stateMutability": "nonpayable",
      "type": "constructor"
    },
    {
      "inputs": [
        {
          "internalType": "uint256",
          "name": "",
          "type": "uint256"
        }
      ],
      "name": "emparr",
      "outputs": [
        {
          "internalType": "string",
          "name": "name",
          "type": "string"
        },
        {
          "internalType": "uint256",
          "name": "id",
          "type": "uint256"
        },
        {
          "internalType": "uint256",
          "name": "age",
          "type": "uint256"
        }
      ],
      "stateMutability": "view",
      "type": "function"
    },
    {
      "inputs": [
        {
          "internalType": "string",
          "name": "_name",
          "type": "string"
        },
        {
          "internalType": "uint256",
          "name": "_id",
          "type": "uint256"
        },
        {
          "internalType": "uint256",
          "name": "_age",
          "type": "uint256"
        }
      ],
      "name": "addEmployee",
      "outputs": [],
      "stateMutability": "nonpayable",
      "type": "function"
    },
    {
      "inputs": [
        {
          "internalType": "uint256",
          "name": "_id",
          "type": "uint256"
        }
      ],
      "name": "getById",
      "outputs": [
        {
          "internalType": "string",
          "name": "",
          "type": "string"
        },
        {
          "internalType": "uint256",
          "name": "",
          "type": "uint256"
        }
      ],
      "stateMutability": "view",
      "type": "function"
    },
    {
      "inputs": [],
      "name": "getAllEmployee",
      "outputs": [
        {
          "components": [
            {
              "internalType": "string",
              "name": "name",
              "type": "string"
            },
            {
              "internalType": "uint256",
              "name": "id",
              "type": "uint256"
            },
            {
              "internalType": "uint256",
              "name": "age",
              "type": "uint256"
            }
          ],
          "internalType": "struct EmployeeNew.Employee[]",
          "name": "",
          "type": "tuple[]"
        }
      ],
      "stateMutability": "view",
      "type": "function"
    }
  ],
  "bytecode": "0x60806040523480156200001157600080fd5b50604051620012cc380380620012cc8339818101604052810190620000379190620002f3565b6200004162000104565b8381600001819052508281602001818152505081816040018181525050806000808581526020019081526020016000206000820151816000019081620000889190620005af565b50602082015181600101556040820151816002015590505060018190806001815401808255809150506001900390600052602060002090600302016000909190919091506000820151816000019081620000e39190620005af565b50602082015181600101556040820151816002015550505050505062000696565b60405180606001604052806060815260200160008152602001600081525090565b6000604051905090565b600080fd5b600080fd5b600080fd5b600080fd5b6000601f19601f8301169050919050565b7f4e487b7100000000000000000000000000000000000000000000000000000000600052604160045260246000fd5b6200018e8262000143565b810181811067ffffffffffffffff82111715620001b057620001af62000154565b5b80604052505050565b6000620001c562000125565b9050620001d3828262000183565b919050565b600067ffffffffffffffff821115620001f657620001f562000154565b5b620002018262000143565b9050602081019050919050565b60005b838110156200022e57808201518184015260208101905062000211565b60008484015250505050565b6000620002516200024b84620001d8565b620001b9565b90508281526020810184848401111562000270576200026f6200013e565b5b6200027d8482856200020e565b509392505050565b600082601f8301126200029d576200029c62000139565b5b8151620002af8482602086016200023a565b91505092915050565b6000819050919050565b620002cd81620002b8565b8114620002d957600080fd5b50565b600081519050620002ed81620002c2565b92915050565b6000806000606084860312156200030f576200030e6200012f565b5b600084015167ffffffffffffffff81111562000330576200032f62000134565b5b6200033e8682870162000285565b93505060206200035186828701620002dc565b92505060406200036486828701620002dc565b9150509250925092565b600081519050919050565b7f4e487b7100000000000000000000000000000000000000000000000000000000600052602260045260246000fd5b60006002820490506001821680620003c157607f821691505b602082108103620003d757620003d662000379565b5b50919050565b60008190508160005260206000209050919050565b60006020601f8301049050919050565b600082821b905092915050565b600060088302620004417fffffffffffffffffffffffffffffffffffffffffffffffffffffffffffffffff8262000402565b6200044d868362000402565b95508019841693508086168417925050509392505050565b6000819050919050565b6000620004906200048a6200048484620002b8565b62000465565b620002b8565b9050919050565b6000819050919050565b620004ac836200046f565b620004c4620004bb8262000497565b8484546200040f565b825550505050565b600090565b620004db620004cc565b620004e8818484620004a1565b505050565b5b81811015620005105762000504600082620004d1565b600181019050620004ee565b5050565b601f8211156200055f576200052981620003dd565b6200053484620003f2565b8101602085101562000544578190505b6200055c6200055385620003f2565b830182620004ed565b50505b505050565b600082821c905092915050565b6000620005846000198460080262000564565b1980831691505092915050565b60006200059f838362000571565b9150826002028217905092915050565b620005ba826200036e565b67ffffffffffffffff811115620005d657620005d562000154565b5b620005e28254620003a8565b620005ef82828562000514565b600060209050601f83116001811462000627576000841562000612578287015190505b6200061e858262000591565b8655506200068e565b601f1984166200063786620003dd565b60005b8281101562000661578489015182556001820191506020850194506020810190506200063a565b868310156200068157848901516200067d601f89168262000571565b8355505b6001600288020188555050505b505050505050565b610c2680620006a66000396000f3fe608060405234801561001057600080fd5b506004361061004c5760003560e01c80634ef75e0d146100515780635d24f6df1461006d5780636cff9c7b1461009f578063f4f4d237146100bd575b600080fd5b61006b600480360381019061006691906105ed565b6100ee565b005b6100876004803603810190610082919061065c565b6101b1565b60405161009693929190610717565b60405180910390f35b6100a7610273565b6040516100b491906108c0565b60405180910390f35b6100d760048036038101906100d2919061065c565b610378565b6040516100e59291906108e2565b60405180910390f35b6100f661043c565b838160000181905250828160200181815250508181604001818152505080600080858152602001908152602001600020600082015181600001908161013b9190610b1e565b506020820151816001015560408201518160020155905050600181908060018154018082558091505060019003906000526020600020906003020160009091909190915060008201518160000190816101949190610b1e565b506020820151816001015560408201518160020155505050505050565b600181815481106101c157600080fd5b90600052602060002090600302016000915090508060000180546101e490610941565b80601f016020809104026020016040519081016040528092919081815260200182805461021090610941565b801561025d5780601f106102325761010080835404028352916020019161025d565b820191906000526020600020905b81548152906001019060200180831161024057829003601f168201915b5050505050908060010154908060020154905083565b60606001805480602002602001604051908101604052809291908181526020016000905b8282101561036f57838290600052602060002090600302016040518060600160405290816000820180546102ca90610941565b80601f01602080910402602001604051908101604052809291908181526020018280546102f690610941565b80156103435780601f1061031857610100808354040283529160200191610343565b820191906000526020600020905b81548152906001019060200180831161032657829003601f168201915b505050505081526020016001820154815260200160028201548152505081526020019060010190610297565b50505050905090565b60606000806000848152602001908152602001600020600001600080858152602001908152602001600020600201548180546103b390610941565b80601f01602080910402602001604051908101604052809291908181526020018280546103df90610941565b801561042c5780601f106104015761010080835404028352916020019161042c565b820191906000526020600020905b81548152906001019060200180831161040f57829003601f168201915b5050505050915091509150915091565b60405180606001604052806060815260200160008152602001600081525090565b6000604051905090565b600080fd5b600080fd5b600080fd5b600080fd5b6000601f19601f8301169050919050565b7f4e487b7100000000000000000000000000000000000000000000000000000000600052604160045260246000fd5b6104c48261047b565b810181811067ffffffffffffffff821117156104e3576104e261048c565b5b80604052505050565b60006104f661045d565b905061050282826104bb565b919050565b600067ffffffffffffffff8211156105225761052161048c565b5b61052b8261047b565b9050602081019050919050565b82818337600083830152505050565b600061055a61055584610507565b6104ec565b90508281526020810184848401111561057657610575610476565b5b610581848285610538565b509392505050565b600082601f83011261059e5761059d610471565b5b81356105ae848260208601610547565b91505092915050565b6000819050919050565b6105ca816105b7565b81146105d557600080fd5b50565b6000813590506105e7816105c1565b92915050565b60008060006060848603121561060657610605610467565b5b600084013567ffffffffffffffff8111156106245761062361046c565b5b61063086828701610589565b9350506020610641868287016105d8565b9250506040610652868287016105d8565b9150509250925092565b60006020828403121561067257610671610467565b5b6000610680848285016105d8565b91505092915050565b600081519050919050565b600082825260208201905092915050565b60005b838110156106c35780820151818401526020810190506106a8565b60008484015250505050565b60006106da82610689565b6106e48185610694565b93506106f48185602086016106a5565b6106fd8161047b565b840191505092915050565b610711816105b7565b82525050565b6000606082019050818103600083015261073181866106cf565b90506107406020830185610708565b61074d6040830184610708565b949350505050565b600081519050919050565b600082825260208201905092915050565b6000819050602082019050919050565b600082825260208201905092915050565b600061079d82610689565b6107a78185610781565b93506107b78185602086016106a5565b6107c08161047b565b840191505092915050565b6107d4816105b7565b82525050565b600060608301600083015184820360008601526107f78282610792565b915050602083015161080c60208601826107cb565b50604083015161081f60408601826107cb565b508091505092915050565b600061083683836107da565b905092915050565b6000602082019050919050565b600061085682610755565b6108608185610760565b93508360208202850161087285610771565b8060005b858110156108ae578484038952815161088f858261082a565b945061089a8361083e565b925060208a01995050600181019050610876565b50829750879550505050505092915050565b600060208201905081810360008301526108da818461084b565b905092915050565b600060408201905081810360008301526108fc81856106cf565b905061090b6020830184610708565b9392505050565b7f4e487b7100000000000000000000000000000000000000000000000000000000600052602260045260246000fd5b6000600282049050600182168061095957607f821691505b60208210810361096c5761096b610912565b5b50919050565b60008190508160005260206000209050919050565b60006020601f8301049050919050565b600082821b905092915050565b6000600883026109d47fffffffffffffffffffffffffffffffffffffffffffffffffffffffffffffffff82610997565b6109de8683610997565b95508019841693508086168417925050509392505050565b6000819050919050565b6000610a1b610a16610a11846105b7565b6109f6565b6105b7565b9050919050565b6000819050919050565b610a3583610a00565b610a49610a4182610a22565b8484546109a4565b825550505050565b600090565b610a5e610a51565b610a69818484610a2c565b505050565b5b81811015610a8d57610a82600082610a56565b600181019050610a6f565b5050565b601f821115610ad257610aa381610972565b610aac84610987565b81016020851015610abb578190505b610acf610ac785610987565b830182610a6e565b50505b505050565b600082821c905092915050565b6000610af560001984600802610ad7565b1980831691505092915050565b6000610b0e8383610ae4565b9150826002028217905092915050565b610b2782610689565b67ffffffffffffffff811115610b4057610b3f61048c565b5b610b4a8254610941565b610b55828285610a91565b600060209050601f831160018114610b885760008415610b76578287015190505b610b808582610b02565b865550610be8565b601f198416610b9686610972565b60005b82811015610bbe57848901518255600182019150602085019450602081019050610b99565b86831015610bdb5784890151610bd7601f891682610ae4565b8355505b6001600288020188555050505b50505050505056fea26469706673582212206f162bc16cbdb51903afa5ff830759a1889cbb8ae5b3cb6929576e43ca28e54864736f6c63430008130033",
  "immutableReferences": {},
  "source": "//SPDX-License-Identifier: MIT\npragma solidity ^0.8.0;\n\ncontract EmployeeNew {\n    struct Employee {\n        string name;\n        uint256 id;\n        uint256 age;\n    }\n    mapping(uint256 => Employee) Employeedeets;\n    Employee[] public emparr;\n\n    constructor(string memory _name, uint256 _id, uint _age) {\n        Employee memory e;\n        e.name = _name;\n        e.id = _id;\n        e.age = _age;\n        Employeedeets[_id] = e;\n        emparr.push(e);\n    }\n\n    function addEmployee(string memory _name, uint256 _id, uint _age) public {\n        Employee memory e;\n        e.name = _name;\n        e.id = _id;\n        e.age = _age;\n        Employeedeets[_id] = e;\n        emparr.push(e);\n    }\n\n    function getById(uint256 _id) public view returns (string memory, uint256) {\n        return (Employeedeets[_id].name, Employeedeets[_id].age);\n    }\n\n    function getAllEmployee() public view returns (Employee[] memory) {\n        return emparr;\n    }\n}\n",
  "sourcePath": "/Users/md.abidkhan/Documents/abid/official/hedera/code/ayushi-hedera-crud-example/contracts/employee.sol",
  "compiler": {
    "name": "solc",
    "version": "0.8.19+commit.7dd6d404.Emscripten.clang"
  },
  "schemaVersion": "3.4.13",
  "updatedAt": "2023-03-24T10:32:24.093Z",
  "devdoc": {
    "kind": "dev",
    "methods": {},
    "version": 1
  },
  "userdoc": {
    "kind": "user",
    "methods": {},
    "version": 1
  }
}